:1000000000800020BD01000049060000010600003C
:1000100001060000010600000106000001060000C4
:10002000010600000106000001060000490600006C
:100030004906000001060000CD1B0000D11C000095
:100040004906000049060000490600004906000074
:100050004906000049060000490600004906000064
:100060004906000049060000490600004906000054
:100070004906000049060000490600004906000044
:100080004906000049060000490600004906000034
:100090004906000049060000490600004906000024
:1000A0004906000049060000490600004906000014
:1000B0004906000049060000490600004906000004
:1000C00049060000490600004906000049060000F4
:1000D00049060000490600004906000049060000E4
:1000E00049060000490600004906000049060000D4
:1000F00049060000ED1D000049060000191F000020
:10010000490600004520000049060000490600009D
:1001100049060000490600004906000049060000A3
:100120004906000049060000490600004906000093
:100130004906000049060000490600004906000083
:100140004906000049060000490600004906000073
:100150004906000049060000490600004906000063
:1001600049060000210B0000490600004906000076
:100170004906000049060000490600004906000043
:100180004906000049060000490600004906000033
:100190004906000049060000490600004906000023
:1001A0004906000049060000490600004906000013
:1001B000490600004906000049060000564B4CF273
:1001C000205210B51A804DF628121A8000BF00BFC9
:1001D00000F03EFA514B4FF010621A60504A9A609C
:1001E000504ADA60504A136813F4807304D14F49BF
:1001F0000B604FF4A85313604D4B1A78110703D5C9
:100200001A7842F008021A704A4B4B492A221A7097
:100210004A4A4B4B8B4204D252F8040F43F8040B6A
:10022000F8E7484B484900228B4202D243F8042B9E
:10023000FAE74649464A002352F8230041F82300D2
:1002400001336F2BF8D1434B434A802103F8011B44
:100250009342FBD1414B3D4A1A60414B8A221A70AE
:10026000A3F5805324225A70A0221A709A7992071B
:10027000FCD59A79D406FCD43A4A937903F00C035E
:10028000082B384BF9D105221A7143225A719A79F9
:100290009006FCD5334A9179324B4906FBD5324A58
:1002A0004FF0817111600521516020221A709A79F6
:1002B00002F00C020C2AFAD12C4B2D4A1A602D4B5D
:1002C0002D4A1A6000225A60072243F8042C2B4A58
:1002D000C3F80C2D62B600F0D9FA144B1B68DA078C
:1002E00005D5274800F056FA264B274A1A60274BB7
:1002F0001B785B0609D5234C234B22689A4204D114
:100300001F4800F047FA0023236001F04FFF00F080
:10031000A5F900F06DF9FEE70E200540308004409D
:10032000823F04000100002B10D0034014D0034092
:1003300002D0074000E007401C90FF1FC82C0000BF
:100340002087FF1F1C90FF1F3C93FF1F0082FF1F91
:100350000000000000E400E05FE400E008ED00E0E1
:1003600000500640004006404480044004800440A1
:10037000C010050014E000E03F190100000020203B
:100380002B578A5E1CE00340A5C3945A00F0074037
:10039000FFFFFFFFFFFFFFFFFFFFFFFFFFFFFFFF6D
:1003A000FFFFFFFFFFFFFFFFFFFFFFFFFFFFFFFF5D
:1003B000FFFFFFFFFFFFFFFFFFFFFFFFFFFFFFFF4D
:1003C000FFFFFFFFFFFFFFFFFFFFFFFFFFFFFFFF3D
:1003D000FFFFFFFFFFFFFFFFFFFFFFFFFFFFFFFF2D
:1003E000FFFFFFFFFFFFFFFFFFFFFFFFFFFFFFFF1D
:1003F000FFFFFFFFFFFFFFFFFFFFFFFFFFFFFFFF0D
:10040000FFFFFFFFFFFFFFFFFFFFFFFFDEF9FFFF23
:1004100010B5054C237833B9044B13B10448AFF33E
:1004200000800123237010BD1C90FF1F00000000FE
:10043000CC2C0000084B10B51BB108490848AFF39D
:1004400000800848036803B910BD074B002BFBD0A0
:10045000BDE81040184700BF000000002090FF1FBB
:10046000CC2C00001C90FF1F0000000008B50121EB
:100470000D2000F0B5F902210C20BDE8084000F085
:10048000AFB900BF2DE9F043284B294D1B68294C1B
:1004900083B00C200193019E00F094F900280CBF5A
:1004A000012300232B7003D0237003B0BDE8F08339
:1004B0002778002FF8D1DFF88C80D8F80020B21A06
:1004C000962AF1D9DFF8809099F80030B3FA83F3D7
:1004D0005B0919460D2089F8003000F06DF90A21FA
:1004E000154801F0B3F93B460A2299F80010134869
:1004F00000F03EF8114800F02BF80D21104801F0F3
:10050000A5F9DFF848C00D48DCF8003003F1010E12
:1005100071463B460A22CCF800E000F029F8074873
:1005200000F016F82B78C8F80060BDE74490FF1F74
:100530003890FF1F3990FF1F002B00002487FF1FFA
:100540000C2B00004090FF1F3A90FF1F3C90FF1FB4
:1005500000B5064A036812885B6883B001A9ADF84C
:1005600004200222984703B05DF804FB1C2B000016
:10057000F0B507468BB0002A33D0012A08BF0A2203
:1005800051B3212400E0F4B2B1FBF2F502FB1511E6
:10059000C8B2092900F1300198BFC8B20AA988BFC2
:1005A0003730214488BFC0B201F8240C661E2946AA
:1005B000002DE8D133B1013CE4B20AAB23442D2233
:1005C00003F8242C3B6801AA11195B683846C4F172
:1005D000220298470BB0F0BD30228DF8252021244F
:1005E000E8E70368C9B21B6898470BB0F0BD00BFCD
:1005F00008B5FFF73BFFFFF745FF01F02BFAFAE7DD
:1006000008B5104C08E0236859050DD423681A0575
:100610000FD42368DB0411D423685803F3D500F00A
:100620007FFA23685905F1D501F0E0FB23681A052C
:10063000EFD501F071FC2368DB04EDD501F002FD7C
:10064000EAE700BF3480044008B5FFF7D9FF00BFD8
:10065000014B10221A80704700200540704700BFF0
:10066000094908B50B6830B16A461844A2F58052B2
:10067000904202D20860184608BD01F091FD0C239B
:1006800003604FF0FF3008BD2087FF1FF0B44D1E00
:100690002E46002400E00134B0FBF2F302FB13000D
:1006A000092800F130078ABF3730F8B2C0B206F827
:1006B000010F1846002BEED10A1953704CB1107877
:1006C00015F8016F28700133E01A834202F80169BE
:1006D000F5DB0846F0BC704710B40F4B53F83020E0
:1006E00092F880422CB1012369B182F8803010BCAD
:1006F000704703EBC0035B681A6841B922F002023D
:100700001A6010BC704782F8003110BC704742F08C
:1007100003021A6010BC7047202B00001C4A02EB39
:10072000C00301295B6811D004291BD052F83000A6
:10073000002280F8802229B1022920D0032922D06A
:100740001A6070474FF480721A60704752F8300098
:100750004FF4A27280F880121A601A6822F0200208
:100760001A60704752F830104FF4A272012081F8DD
:1007700080021A601A6842F020021A60704740F244
:1007800003121A6070474FF481721A60704700BFFD
:10079000202B000030B4054B054D064C00221021E3
:1007A0001A602A602060196030BC704714D0034082
:1007B00004D0034000D00340212801D8FFF78CBFAC
:1007C000704700BF212806D8044B53F8303093F807
:1007D0000002C0B270470020704700BF202B00000D
:1007E000212801D8FFF79ABF704700BF2DE9F843D1
:1007F000054672B6214F224B224A1B683C6812689C
:1008000062B6520102D5322B88BF0134A5B3C3F5BD
:100810008C331D4EDFF86890DFF8688003F23F13D9
:100820004FF47A72A6FB031302FB04F404EB1314D7
:1008300072B6D9F800103A68D8F800E062B6C1F58F
:100840008C3303F23F13A6FB03031EF0806FC4EB4F
:1008500013134FF47A7002D0322988BF013200FBA3
:100860000233B3F57A7F04D3013D05D004F57A74E1
:10087000DEE701F0EFF8DBE7BDE8F8834490FF1F07
:1008800018E000E004ED00E0398EE338F8B52D4BB8
:100890002D49DFF8D0E0DFF8D0C02C4E2C4D2D4C88
:1008A0002D4A2E4F4FF4000018604FF080701860F2
:1008B0004FF0007018604FF0806018604FF00060DB
:1008C000186000200860282348F6FF71CCF800105B
:1008D000CEF80030336013602B6023603B60B3625E
:1008E0009362092245F8242CC4F8D80F05F57F65DA
:1008F000C7F8D41F07F5FF2707F5FA67C6F8F83FD2
:100900002B6006F5FF26C4F8D42F05F5FD2504F568
:10091000FF24386006F2F4761148316005F5FF6572
:1009200004F5FD642B602360026001F0DFF91920FB
:10093000FFF75CFF00F05CFE40F21310BDE8F840EA
:10094000FFF754BF08E100E0048003401480034037
:10095000248003402C8003401C80034034800340EB
:1009600000800B400C80034008800340431E032B93
:1009700014D872B60A4951F8230068B170B4094C12
:10098000058834F81320466841F82360521B24F888
:10099000132062B670BC704762B670470020704783
:1009A000A090FF1F2493FF1F013803280BD872B6B5
:1009B000074B53F8203043B100205B680130002B17
:1009C000FBD162B67047002070471846F9E700BFB8
:1009D000F490FF1F30B472B62B4A13781D0706D56A
:1009E0002A4B196A002936D0996A002941D05378D8
:1009F0001C0706D5254B196C00293ED0996C00299F
:100A000039D09378190705D5204B196E002936D0B7
:100A1000996E89B1D3781B0707D51C4BD3F880207A
:100A20007AB3D3F8882011213AB162B6184B00226C
:100A30001A7030BC00F07EBE0D21154C154D227889
:100A400043F8315003EBC1030830013A586022707B
:100A500062B630BC704704220D4C0F4D217843F82C
:100A6000325003EBC20308304A1E5860227062B64F
:100A7000EFE70521E1E70921DFE70822ECE70C2297
:100A8000EAE71022E8E700BF582C00000080FF1FB3
:100A90001D91FF1FC800400088004000431E032B2B
:100AA0001DD81B4A400140F0100030B4104472B60B
:100AB000184CE25C032A1BD8DFE802F0021215177B
:100AC00003220D88E25410F0080F14BFC8238823B6
:100AD00043EA054308310360416062B630BC7047A9
:100AE00008300222EDE70522EBE708300422E8E7B0
:100AF000094A52F8230038B1084A52F823004160ED
:100B000042F8231062B6E9E742F82310034AF7E7F8
:100B10000080FF1F2C91FF1FF490FF1F0491FF1F07
:100B20002DE9F04FDFF80CB3DFF80CA387B044E0F9
:100B3000AB4F4FEA930807EBC809013ED9F80420F0
:100B400003F00803F6B2A2F1080003F0FF04002B43
:100B500040F0028157F838301B0C99B222F8081C7B
:100B6000002B00F0F0809F4B22F8064C42F8044C1A
:100B700053F82620002A00F0C5829B4D55F82630F8
:100B800058609A4C45F8260034F81630194424F879
:100B9000161000F0AFFD002800F0AD82944A954B8E
:100BA00019F0080F00F1080018BF1346C9F8040037
:100BB00047F8383008238BF800309BF80040E4B247
:100BC00061071AD58C4B1B78A3B18C490A7802F0C7
:100BD000FF0322B1013BDBB20B7003B900BE8849B1
:100BE0000A7802F0FF032AB1013BDBB20B70002B45
:100BF00000F0578204238BF8003004F0080303F060
:100C0000FF02002B00F0CC809AF80030DBB21E0906
:100C10008ED19C08DFF8C89159F8342009EBC40143
:100C2000C2F38302013A49680C2A00F28880DFE8A7
:100C300002F07C7C868686868686478686860700C6
:100C40000868704D4A68704F704E286081B240F25B
:100C50008160674B6A604FF0010E0022814249F8C3
:100C600034303A60C9F81020C9F8182086F800E03E
:100C70005B4C00F2E380B1F5D06F80F04683B1F5B4
:100C8000817F00F0FC8200F28D82802900F0778362
:100C9000822940F0FA82A98801F07F01042900F23C
:100CA000F4825B485B4C89000844227062700278D1
:100CB000930740F1588484F800E04FF0020E42E3BD
:100CC000514F3A6832B3544B504E544918883478D7
:100CD0000D784028864645F0020828BF4FF0400EA8
:100CE000002C84F001043470CEEB00000CBF88248B
:100CF000C82409EBC80680B285F0010544EA0E4419
:100D00007260188049F8384072440D70002800F075
:100D100045813A603B4B1A88B2F5A06F0FD1002194
:100D20009A7859703E4B1A7009E0364A108842F2A0
:100D30002102904200F037812D4A49F83420394A87
:100D40000123137036E72A4A2A4B19F0080F18BFFF
:100D5000134647F838302DE700F0ECFC324A3349AF
:100D600052F82630002B00F0D18158688C5D42F893
:100D7000260003F10802C9F80420032C05D8DFE897
:100D800004F02C02292602228A551A8819F0080F2D
:100D90000CBF8823C82343EA024347F8383009E7E9
:100DA000E00700F18181210600F1F281A20706D55A
:100DB0001F4A204913780220DBB213700870E30643
:100DC00002D51C4B10221A7007B0BDE8F08F042228
:100DD0008A55DAE705228A55D7E703228A55D4E7F0
:100DE0000080FF1FA090FF1F4C90FF1F2493FF1F48
:100DF000C8004000880040002891FF1FB190FF1FED
:100E00003091FF1F1491FF1F4890FF1FB090FF1FEC
:100E1000C02007402091FF1F5C90FF1F1C91FF1F07
:100E20009820074094200740F490FF1F2C91FF1F4B
:100E300088200740802007409020074042F2210090
:100E4000814200F02A8100F2D880B1F5086F00F0ED
:100E50007682B1F5106F40F01882226AB349A87803
:100E60000870120600F13A83D9F82820B049130619
:100E700000F10C83D9F83020AD49150600F101834B
:100E8000D9F83820AA49140600F1F682D9F8402092
:100E9000A749100600F14A83D9F84820A449120650
:100EA00000F13F83D9F85020A149130600F13483A3
:100EB000D9F858209E49150600F12983D9F86020F9
:100EC0009B49140600F11E83D9F868209849100642
:100ED00000F11383D9F870209549120600F10883B8
:100EE000D9F878209249130600F1FD82D9F88020C4
:100EF0008F49150600F13183D9F888208C491406F2
:100F000000F12583D9F890208949100600F1198352
:100F1000D9F898208649120600F10D838548864A43
:100F2000864901908648874D874C04970023059693
:100F3000029580460F4616461D460394306828B138
:100F4000446800F0F7FB2046002CF9D10023336001
:100F5000029B38681A46002342F8253028B14468BD
:100F600000F0E8FB2046002CF9D100223A60019AFB
:100F700098F800301146002241F8042B039A0191A1
:100F8000023B4FF0000122F81510032B00F22B81D9
:100F9000DFE813F07001250170012501BEF1400F5B
:100FA00018BF0022B5E6694A0D7848781570507070
:100FB0008D78C8789570D07010680D791571862875
:100FC0004D7989795571917100F09B816049614E2D
:100FD0000A78307882F00105002842F002020D7094
:100FE0000CBF8821C82149F8321009EBC20280F0F9
:100FF00001000021307051609EE642F221208142C2
:1010000040F0CB81544B554C5549A8781D6825605C
:10101000CDF804E008700020029080468446044623
:101020004B490D7845F0020E09EBCE030393019B6B
:10103000002B039B5C600CBF8824C82444EA08038F
:1010400085F0010449F83E3032700C70DFF8E0E0C2
:10105000404BDFF8FC80002840F01E81BCF1400FBF
:101060001BD144F0020C09EBCC03029CDFF8C0E07A
:101070005C60002A40F02681020442F088029DF85C
:1010800004304EF83C20044433700D702346402851
:1010900003D10020334A3B601080334A0123137090
:1010A0004DE600F0B3FCA5E5214B2F4828491A6115
:1010B0004FF0020E80F800E02C4F0A702C491960A6
:1010C00099602C4E2C4D2D4C9A610D213970FF21C9
:1010D0003170DFF8B8E029702270294D294A8EF866
:1010E00000109F27012406F8047C5D600470DA601C
:1010F00007B0BDE8F08F244A47F838001378013371
:10110000137057E543F826000E4D3AE58B5D032B2F
:1011100000F2F08001A252F823F000BFB50B0000EE
:10112000B50B0000D9110000D31100002891FF1F5A
:101130000080FF1F0491FF1FA090FF1FF490FF1F6E
:101140002C91FF1F4C90FF1F2493FF1F2C93FF1F18
:101150001C91FF1FB090FF1F4490FF1F3493FF1F8F
:101160004091FF1F5C90FF1F94200740C020074064
:1011700088004000882007408020074098200740D2
:101180006090FF1FB490FF1F1D91FF1F8C20074030
:10119000C149C24B80220D2008701A70A2077FF54A
:1011A0000EAE05E640F20232914240F0EE80A98890
:1011B00001F07F01042968D86A88002A65D1B64801
:1011C000CDF804E089000844017841F00201017083
:1011D00021E701238B55EDE400238B55EAE44FF022
:1011E000010388F800300135042D06F1040607F1EB
:1011F000040708F101087FF4A1AEA94CA94B22789D
:10120000A94D049F059E002129701A70130700F153
:1012100005816278A549DFF8A0820A7010074FF0B7
:101220000001C9F83010C9F8381000F1E080A04979
:10123000A2780A700021C9F85010C9F85810110797
:10124000DFF8748200F10181E2789A499A4C0A70C1
:1012500000211207C9F87010C9F8781000F1B080A9
:1012600033780193002183F00102C9F89010C9F886
:101270009810D0E64FF0000388F80030B3E7A98853
:1012800001F07F01042940F28D80834A0F231370FF
:101290008A4A0123137052E540287FF6E2AE44F0FB
:1012A00002040EEBC401029E4E60BAB19DF8041018
:1012B000834A19703346403888F8005040334EF85E
:1012C0003420E7E69DF8043033700204029B0D7071
:1012D00042F0C80203444EF83C20D8E69DF80410C2
:1012E0001970029B774A88F80050403840334EF816
:1012F0003420CFE619F0080F0CBF022303238B55CF
:1013000058E4714A0F21117060E6704A5468002C4D
:10131000BBD06888B5F804E003E00C325468002CB8
:10132000B3D013888342F8D153887345F5D1000AAE
:1013300003280CBF94F800E0B2F808E003E0644A28
:10134000644C12782270E888704580F03F816249D1
:101350000D784028844645F0020E28BF4FF0400C1F
:1013600004EB0C0309EBCE02029301235460CCEB97
:1013700000004FEA0C4800220193C8245EE6554C59
:101380004FF0020E22706270DDE7B1F5A06F7FF4BE
:101390007CAF0123002201933DE642F221329142CB
:1013A000F7D072E76A88002A7FF46FAF3A48CDF829
:1013B00004E089000844017821F0020101702AE666
:1013C00000F098F9002800F0EF8008303D4AC4F89A
:1013D0008400C4F8802000F08DF9002800F0DE8041
:1013E0000830374AC9F88C00C9F8882038E700F07F
:1013F00081F9002800F0C0800830324AC8F8440063
:10140000C8F8402000F076F9002800F0AF800830DE
:101410002B4AC9F84C00C9F8482008E700F06AF9DF
:10142000002800F0CD800830264AC9F82400C9F809
:10143000202000F05FF9002800F0BC800830204A2E
:10144000C9F82C00C9F82820E3E600F053F9002879
:1014500000F09E8008301B4AC8F86400C8F860207D
:1014600000F048F9002800F08D800830144AC9F8CF
:101470006C00C9F86820E7E6C86B083800F05AF934
:1014800004E5486B083800F055F9F9E4C86A0838F3
:1014900000F050F9EEE400BFC02007408020074074
:1014A000582C0000C42007401D91FF1FC820074092
:1014B000CC200740D02007400080FF1F9420074029
:1014C000C800400088004000B190FF1F5C2C000065
:1014D0002891FF1F2091FF1F1C91FF1F606A083891
:1014E00000F028F9C0E4C86F083800F023F9FDE4E3
:1014F000486F083800F01EF9F2E4C86E083800F0B2
:1015000019F9E7E4486E083800F014F9DCE4C86D16
:10151000083800F00FF9D1E4486D083800F00AF9F6
:10152000C6E4C86C083800F005F9BBE4486C08381C
:1015300000F000F9B0E4D1F89C00083800F0FAF8A7
:10154000ECE4D1F89400083800F0F4F8E0E4D1F8C5
:101550008C00083800F0EEF8D4E4D1F884000838A4
:1015600000F0E8F8C8E44FF0020EECE62A78C9F87B
:10157000480001322A705AE62A78C8F84000013241
:101580002A703FE72A78C9F8680001322A705BE6C2
:101590002A78C8F8600001322A7061E72A78C9F811
:1015A000880001322A705BE62A78C4F88000013294
:1015B0002A7010E72A78C9F8280001322A7028E634
:1015C0002A78C9F8200001322A7032E7BEF1400FB4
:1015D000F44628BF4FF0400C04EB0C0302930123A8
:1015E000CCEB0E004FEA0C480022019318E500BF37
:1015F000F8B500F093FD294B29482A4C2A4F2B4D72
:10160000DFF8BCC0DFF8BCE0294E00221A605A6047
:101610009A60DA601A615A619A61DA611A625A62F2
:101620009A62DA621A635A639A63DA631A645A64D2
:101630009A64DA641A655A659A65DA651A665A66B2
:101640009A66DA661A675A679A67DA67C3F880207B
:101650000168C3F8842041F480210160C3F30721AD
:101660002170C3F30740134938701B0E2B70FF2302
:101670008CF80030104D8EF8003010480B700123AC
:10168000337084F8642070264FF40074102207F839
:101690002C3C2E70046081F8F820F8BD0080FF1FFC
:1016A000348004409C200740B0200740B42007400D
:1016B000942007401020074049E400E008E100E0E2
:1016C000802007408820074000F0A4B800F07CB8D4
:1016D00000F056B800F090B800F06CB900F046B9D0
:1016E0000846114600F0B2B8084600F033B900BF12
:1016F000704700BF72B60D480268B2FA82F30B2B36
:1017000010DC4FF00041D94022EA0102026062B6CB
:10171000074803EBC303DB00C2180021C150104689
:101720005160704762B60020704700BF3487FF1FCA
:10173000BC83FF1F0D4B0E4AC31AA2FB03231B09D8
:101740000B2B0CD80B4A127852B972B60A484FF0DC
:101750000041026821FA03F31A43026062B670473F
:10176000064A1278002AF0D0FFF734B9BC83FF1F75
:10177000398EE3381D91FF1F3487FF1F2891FF1F0B
:1017800038B50F4D286878B143880288C1180133F5
:1017900093420C7A02D24380204638BDFFF7CAFF3D
:1017A000002320462B6038BD064B1B782BB103204D
:1017B000FFF7DCF828600028E6D14FF0FF3038BD95
:1017C0003C91FF1F2891FF1F10B5094C206818B1EC
:1017D00043881844007A10BD064B1B782BB10320B8
:1017E000FFF7C4F820600028F2D14FF0FF3010BDA1
:1017F0003C91FF1F2891FF1F044B054A1B689088EE
:101800001BB11A885B88D31A184470473C91FF1F9C
:101810002493FF1F0B4B1B789BB110B50A4C20681B
:1018200048B1FFF787FF002303202360FFF79EF8EE
:1018300030B1FFF77FFF0320FFF798F80028F8D1B9
:1018400010BD70472891FF1F3C91FF1F2DE9F04FFD
:10185000DFF8F89083B0012289F80020019169B384
:10186000DFF8EC80364F019E8346D8F80000B0B315
:10187000344D4488C4F14001B14228BF314604EBE5
:10188000010E00221FFA8EFE2A70761AA0F802E0DE
:1018900000F1080251B1013C224459441BF8014BAC
:1018A00002F8014F8B45F9D1B0F802E0BEF13F0FCD
:1018B0000BD8254A05211170002ED6D1019800239E
:1018C00089F8003003B0BDE8F08F40220280014665
:1018D0000420FFF7E3F80022C8F80020E9E73A788F
:1018E0002AB3184D48F601444FF0010A07E0013CC5
:1018F00016D02A78A2B900F0ADF83A78BAB104202F
:10190000FFF752F80728F2D889F800A0FFF7F2FE97
:10191000C8F800000028ACD10C4B013C1870E8D18D
:1019200001234FF0FF302B7003B0BDE8F08F002390
:101930004FF0FF3089F8003003B0BDE8F08F00BFF2
:101940002891FF1F3891FF1F3091FF1F3191FF1F1A
:101950003491FF1F00B583B002AB012103F8010DE4
:101960001846FFF773FF03B05DF804FB38B50E4D62
:101970000E4C28680123237028B14088002323706F
:10198000C0F1400038BD0A4B1B7813B9002020700D
:1019900038BD0420FFF708F80728F7D8FFF7AAFE9C
:1019A00028600028E9D1F1E73491FF1F3191FF1F32
:1019B0002891FF1FF8B5114B1B788BB1104E114DBC
:1019C000346801272F7064B10F4A638800271770AD
:1019D000214623800420FFF761F8376000232B7035
:1019E000F8BDFFF787FE084B28B1014604201C70A4
:1019F000FFF754F8F2E71F70F0E700BF2891FF1FD0
:101A00003491FF1F3191FF1F3091FF1F38B50E4BEE
:101A10001B7873B90D4C216861B103F0FF054B8849
:101A20000B800420FFF73AF8256038BD084B0122EF
:101A30001A7038BDFFF75EFE0028F7D00146BDE8FA
:101A400038400420FFF72AB83191FF1F3491FF1F5F
:101A50003091FF1F38B5224C237803B138BD0123E4
:101A60002370FFF7C9FE70BB00F0B0F940BB00F077
:101A700043FA10BB00F0D6FAE0B900232370EFF36D
:101A80000583002BEAD1EFF3108172B6154B18686D
:101A9000E0B1154C2278CAB945691D600123237055
:101AA000C5B1AA6101B962B6002545778368984738
:101AB0002570D3E700F018F9DFE700F013F9D9E754
:101AC00000F00EF9D3E7FFF713FECDE70029C5D1EB
:101AD00062B638BD054B1D600029E5D1E3E700BFC4
:101AE0004191FF1F5491FF1F5891FF1F5091FF1FFD
:101AF00010B4EFF3108272B6437F33B9017F01292E
:101B000007D003290FD00123437702B962B610BC76
:101B10007047124C2168A1B1114943610B68836180
:101B200008605861EFE70F4C216881B10E494361AD
:101B30000B688361086058610C4B4FF0805119604D
:101B4000E1E7074B4161816120601860DBE7064BEC
:101B50004161816120601860EEE700BF5491FF1F72
:101B60005091FF1F4491FF1F4891FF1F04ED00E0BB
:101B700010B4047F4160022CC26002D010BCFFF799
:101B8000B7BF836810BC184770B5EFF3108272B608
:101B90000C4C206880B10C4E00254369236073B162
:101BA0009D6102B962B6457783689847EFF310826A
:101BB00072B620680028F0D102B962B670BD3360F9
:101BC000EFE700BF4491FF1F4891FF1FFFF7DCBF05
:101BD000184A30B41468002C27D0036821688B425F
:101BE0000ED2CB1A00218460C1602360E0601060D7
:101BF0000223037530BC704711688B42144608D32A
:101C0000A2685B1A0360002AF6D18260C460A060FB
:101C1000EEE7D268C2608460E060C568CB1A022239
:101C2000A8602360027530BC70478460C460106097
:101C3000DEE700BF4C91FF1FF8B5224E34682CB38D
:101C40002368002B3AD1204F1D4604E03468ECB1E4
:101C50002368002B32D1A36803B1DD6020693360B3
:101C6000036825751B68BB4221D1037F4560022BA9
:101C7000C46020D0FFF73CFF6368002BE6D02360F0
:101C80002046FFF7A5FF3468002CE1D1EFF3108365
:101C900072B60E4A00211068116003B962B628B10D
:101CA0008468FFF795FF20460028F9D1F8BD224649
:101CB00000219847E0E783689847DDE7013B236010
:101CC000E4E700BF4C91FF1F711B00005C91FF1FF8
:101CD000024A136801331360FFF7AEBF4490FF1F41
:101CE000704700BF704700BF704700BF30B429483D
:101CF000294A2A4B2A4D6024E121047011701B7877
:101D0000284C082B30D00A2B2748284937D00C2BD9
:101D10000CBF15223D2212232A60236002600B6053
:101D2000234B24491B78244ABBB101230B60136069
:101D3000224B23491B78234A012B26D9042B0FD988
:101D4000082B1ED9102B94BF862387230B601360AA
:101D50001D4B01221A7030BC70470B601360E7E71F
:101D600084230B601360F3E700F58E200F490830E1
:101D7000012213232A60236002600B60D0E719223E
:101D8000F7E785230B601360E2E780230B601360A5
:101D9000DEE700BF00400740014007403887FF1FD3
:101DA00008B003400CB0034008B00B400CB00B402F
:101DB0006191FF1F20B0034020B00B403987FF1F07
:101DC00024B0034024B00B406091FF1F054A064B2E
:101DD00010781B78C0B2DBB2984238BF4030C01ACE
:101DE000704700BF6891FF1F6991FF1FF0B4384B27
:101DF0001A7912F0300F2CD072B6997D01F0FF02E3
:101E000000293DD062B6334F334938780D78334ED0
:101E10001C46C0B2EDB2431C402BE17928BF002321
:101E2000AB4202F1FF32C9B21CBFF154184612F0A6
:101E3000FF02F0D12A4B1B68C2B23A704BB1A842E4
:101E400036BFC5F14005401B40192728C4BF0122F9
:101E50001A701F49CA78D2B2150616D452060DD58B
:101E60001B4B1B795B0609D51E4B1F491B680022C3
:101E70000A7003B11A70164B3C22DA70F0BC70473E
:101E80004022D9795A7462B6E3E70B791C06E5D58E
:101E9000164B174E1C783378E4B2DBB29C420ED05E
:101EA000144D01E0A3420AD00133402B28BF002388
:101EB0000879E85CC0B2C871087D0728F2D9DBB2A6
:101EC000034933700B79180644BF7C23CB70C5E7F8
:101ED00000A006406891FF1F6991FF1FAC91FF1F92
:101EE0006491FF1FF091FF1FEC91FF1FF491FF1F02
:101EF000ED91FF1F6C91FF1F054A064B10781B7870
:101F0000C0B2DBB2984238BF4030C01A704700BF41
:101F10006892FF1FFD91FF1FF0B4384B1A7912F041
:101F2000300F2CD072B6997D01F0FF0200293DD010
:101F300062B6334F334938780D78334E1C46C0B201
:101F4000EDB2431C402BE17928BF0023AB4202F1E4
:101F5000FF32C9B21CBFF154184612F0FF02F0D193
:101F60002A4B1B68C2B23A704BB1A84236BFC5F1CA
:101F70004005401B40192728C4BF01221A701F4981
:101F8000CA78D2B2150616D452060DD51B4B1B7952
:101F90005B0609D51E4B1F491B6800220A7003B15E
:101FA0001A70164B3C22DA70F0BC70474022D97987
:101FB0005A7462B6E3E70B791C06E5D5164B174E4B
:101FC0001C783378E4B2DBB29C420ED0144D01E0B1
:101FD000A3420AD00133282B28BF00230879E85CEC
:101FE000C0B2C871087D0728F2D9DBB2034933704B
:101FF0000B79180644BF7C23CB70C5E700B00640C0
:102000006892FF1FFD91FF1F2892FF1FF891FF1F8D
:102010006C92FF1FFC91FF1F7092FF1F6992FF1FC0
:102020000092FF1F054A064B10781B78C0B2DBB246
:10203000984238BF4030C01A704700BF7892FF1FE7
:102040007992FF1F30B42B4B1A7994061FD52A487A
:10205000DA790378294901333F2B0978C8BF002377
:102060008B42D2B203D0264CD9B2E2540170254A39
:10207000116861B1244A1278D2B2934236BFC2F1DC
:1020800040029B1A9B18272BC4BF01230B70194ACF
:10209000D378DBB2180611D45A060DD5154B1B792F
:1020A0005B0609D5194B1A491B6800220A7003B157
:1020B0001A70104B2C22DA7030BC70471179090667
:1020C000EAD5144910480C780178C9B28C420DD079
:1020D0004A1C272A84BF00210A460F4D054C98BF91
:1020E000D1B2AA5CD2B2E2710170D5E76C21D17095
:1020F000D2E700BF00C006407892FF1F7992FF1F11
:10210000A492FF1F7492FF1FE592FF1FE892FF1F2A
:10211000E492FF1FEC92FF1F7C92FF1F70B584B00A
:1021200072B6194B194D1A48702241260F2480218E
:102130001A702E701A460470197013781B06FCD59D
:10214000144B186862B6144B144C984298BF00EBBD
:10215000800001A998BF40000A22FEF797FA01A962
:102160002046002311F8012B01333AB10A2B20F845
:10217000022FF7D11623237004B070BD5B00DBB2D1
:10218000237004B070BD00BF000002400700024091
:1021900006000240080002407F969800C887FF1F93
:1021A000014B1868704700BF088CFF1F70B50F4EB9
:1021B0000F4D761BB61018BF002405D0013455F81A
:1021C000043B9847A642F9D10A4E0B4D761B00F00E
:1021D00071FDB61018BF002406D0013455F8043B39
:1021E0009847A642F9D170BD70BD00BFC02C000059
:1021F000C02C0000C82C0000C02C0000024B01467F
:10220000186800F003B800BF088CFF1F2DE9F04FDD
:1022100001F10B05162D83B0064640F29F8035F084
:10222000070500F1BF80A94200F2BC8000F0A6FAC9
:10223000B5F5FC7FC0F09C826B0A00F0BA80042BDD
:1022400000F28381A80900F1390E4FEA4E033830BD
:10225000C44F07EB8303A3F108015C68A14207D1D7
:10226000ACE0002A80F2AC80E468A14200F0A680D5
:10227000636823F003035A1B0F2AF2DDB9493C6956
:1022800001F1080E744500F0B381636823F0030385
:102290005A1B0F2A00F39981002AC1F814E0C1F8F3
:1022A00010E080F29E80B3F5007F80F06781DB084C
:1022B00003F1010C01229B1002FA03F34A6851F862
:1022C0003C80C4F8088001EBCC091A43A9F108034B
:1022D000E3604A6041F83C40C8F80C408310012498
:1022E0009C40944200F28A80144206D120F0030000
:1022F0006400144200F10400FAD007EBC009CC4698
:102300008046DCF80C108C4507D173E1002A80F27E
:102310008181C9688C4500F06D814B6823F003030F
:102320005A1B0F2AF2DD0C46D1F80CC054F8088F66
:102330004B1945F001054D6042F00101C8F80CC091
:102340003046CCF808807B613B61C3F80CE0C3F8F1
:1023500008E059609A5000F013FA1FE0102921D8C4
:1023600000F00CFA1025062302207E4F07EB8303B2
:10237000A3F108025C68944200F045816368E1685B
:10238000A56823F00303234430465A68E96042F00D
:1023900001028D605A6000F0F3F90834204603B062
:1023A000BDE8F08F00240C232046336003B0BDE865
:1023B000F08F80234FF0400E3F2049E770465DE7E5
:1023C0002344E1685A68A56842F00102E96030469A
:1023D0008D605A6000F0D4F90834204603B0BDE89F
:1023E000F08F234430465A6842F001025A6000F0F0
:1023F000C7F90834204603B0BDE8F08FBC686368B5
:1024000023F00308A84504D3C5EB08030F2B00F302
:102410008C80554BDFF860911A68D9F80030013391
:102420002A4404EB080A00F0608102F580520F3262
:1024300022F47F6222F00F0211463046019200F032
:10244000A1F9B0F1FF3F8346019A00F0588182451F
:1024500000F2FC80454B1968DA451144196000F020
:102460005381D9F80000DFF810E101301BBFCAEB3F
:102470000B0A5144CEF800B019601BF0070100F0C0
:102480001781C1F10800C1F58051834408315A44D5
:10249000C2F30B02C2EB010949463046019300F03A
:1024A00071F9431C019B00F03F81CBEB00024A44D1
:1024B00042F001021968C7F808B04944BC42CBF8A1
:1024C00004201960DFF8A49016D0B8F10F0F40F285
:1024D000FD806268A8F10C0323F00703E01802F006
:1024E00001024FF0050E1A430F2B6260C0F804E0A2
:1024F000C0F808E000F21C811D4BBC681A689142CC
:1025000088BF19601B4B1A689142626888BF1960C6
:1025100022F003029542A2EB050301D80F2B04DC45
:10252000304600F02DF9002438E7621943F001032A
:1025300045F0010565603046BA60536000F020F94F
:102540000834204603B0BDE8F08F142B71D9542B0A
:1025500000F2A480280B00F16F0E4FEA4E036E309C
:1025600076E600BF0C8CFF1FF892FF1FFC92FF1F46
:10257000F492FF1FF092FF1F1890FF1F5A0A042ABF
:102580005ED9142A00F2B38002F15C0149005B328B
:1025900007EB810C57F82110DFF8DC81ACF1080C57
:1025A0008C4500F088804A6822F00302934202D2F0
:1025B00089688C45F7D1D1F80CC07A68C4F80CC092
:1025C000A160CCF80840CC6088E6631942F00107AE
:1025D00045F00105656030464B610B61C3F80CE0C6
:1025E000C3F808E05F609A50083400F0C9F8D5E6F7
:1025F0004A6873E608F1010818F0030F0CF1080CA3
:102600007FF47FAE30E0DC68A34208BF02303FF4C5
:1026100035AEB3E60B440C465A68C96854F8085FF7
:1026200042F001025A603046E9608D6000F0A8F87F
:10263000B4E603F15C0E03F15B004FEA4E0307E6DC
:102640009A0902F1390149003832A1E7BC424A4BEC
:102650003FF400AF9C68626822F003025AE759F821
:102660000839994540F0828010F0030F00F1FF30E7
:10267000F5D17B6823EA04037B6064009C423FF64B
:10268000BDAE002C3FF4BAAE1C4240467FF435AEDE
:1026900064001C4200F10400FAD02EE6B3F5AA7FD4
:1026A00018D8E80B00F1780E4FEA4E037730CFE5EB
:1026B0004FF48051EBE60121D8F80430921001FA72
:1026C00002F21A43C8F80420614677E70123CBF8E9
:1026D000043025E740F25452934220D8A80C00F170
:1026E0007D0E4FEA4E037C30B2E51032A4E6542A48
:1026F00026D81A0B02F16F0149006E3248E7BC6818
:10270000626822F0030205E7CAF30B0000287FF499
:10271000A8AE4244BB6842F001025A60ECE6FE23D8
:102720004FF07F0E7E2093E501224FF00009C1E6B5
:1027300004F10801304600F0A9F8D9F80010DBE6F2
:10274000B2F5AA7F05D8DA0B02F178014900773299
:102750001EE740F254518A4205D89A0C02F17D01DD
:1027600049007C3214E7FE217E2211E77B6884E772
:10277000E808431C5B00F8E50C8CFF1F704700BFA6
:10278000704700BF38B5074C002305460846236054
:10279000FDF766FF431C00D038BD2368002BFBD03B
:1027A0002B6038BD3893FF1F024B13B1024800F075
:1027B00005B8704700000000C9270000002301464B
:1027C0001A46184600F04AB938B5074D074C2C1B7D
:1027D000A41005D0013C55F8043D9847002CF9D1D0
:1027E000BDE8384000F070BA0000000000000000B2
:1027F000F8B5234F0C460646FFF7C0FFBB685D687F
:1028000025F00305291B01F6EF7121F47F6121F00A
:102810000F01A1F58054B4F5805F07DB002130463D
:10282000FFF7B0FFBB682B44984204D03046FFF757
:10283000A7FF0020F8BD61423046FFF7A3FF01303B
:102840000DD0104BBA6819682D1B45F001053046B4
:10285000091B55601960FFF793FF0120F8BD0021A7
:102860003046FFF78FFFBA68831A0F2BDEDD064C68
:102870000449246843F00103001B53600860D5E756
:102880000C8CFF1FFC92FF1F1890FF1F002945D0E2
:102890002DE9F0410D468046FFF770FF55F8047CA6
:1028A0006A4927F00103A5F10804E2188E68506810
:1028B000B24220F0030062D0FE0750600BD455F8FE
:1028C000087CE41B01F1080EA56875453B446FD0F8
:1028D000E768EF60BD6015186D68ED0742D543F0FD
:1028E00001026260E350B3F5007F18D2DB085A1C86
:1028F0004D6851F83270A76001209B1000FA03F375
:1029000001EBC2001D430838E0604D6041F83240E1
:10291000FC604046BDE8F041FFF732BF70475A0AFD
:10292000042A53D89A0902F139077F0002F13805C9
:1029300001EB870051F827204449083890424DD0D8
:10294000516821F003018B4202D292689042F7D184
:10295000D068E060A2608460D4604046BDE8F04189
:10296000FFF70EBF95683A4FBD4203443FD0D06891
:10297000E86043F0010285606260E350B3E7FF075F
:10298000034407D455F8082CA41A1344A068E2683D
:10299000C26090602F4A126843F001009342606069
:1029A0008C60B6D32C4B40461968FFF721FFB0E787
:1029B00011184968C90744D49168D268CA600344B1
:1029C00043F0010091606060E350A2E7142A17D839
:1029D00002F15C077F0002F15B05A9E7AA104B68D2
:1029E000012505FA02F213434B600246B1E743F0BA
:1029F00001024C610C61E560A5606260E35088E70C
:102A0000542A06D81A0B02F16F077F0002F16E05F7
:102A10008EE7B2F5AA7F06D8DA0B02F178077F00BD
:102A200002F1770584E740F25450824206D89A0CAE
:102A300002F17D077F0002F17C0579E7FE277E2504
:102A400076E743F001026260E35062E70C8CFF1FFF
:102A5000148CFF1F1490FF1FF892FF1F2DE9F04701
:102A6000254C2568D5F84841064688469246994641
:102A7000C4B360681F2817DC431C76B104EB8005E3
:102A80000122C5F888A0D4F8881182401143022E93
:102A9000C4F88811C5F808911ED00230636044F86C
:102AA00020800020BDE8F087144B03B34FF4C870BA
:102AB000FFF7A4FB0446D0B1D5F84831002780E8E1
:102AC0008800C5F8484138460123C4F88871C4F825
:102AD0008C71002EE1D0D1E7D4F88C110A43C4F8F0
:102AE0008C21DAE705F5A674C5F84841C1E74FF037
:102AF000FF30BDE8F08700BFB02C0000FD210000D2
:102B00004C45445374617465203D000042757474F3
:102B10006F6E436F756E74203D0000000D0AFFFF5D
:102B20004008FE4340A004404408FE4344A0044043
:102B30000018FE4300C004403000FE4330900440C3
:102B40003400FE43349004401C18FE431CC0044073
:102B50001018FE4310C004400818FE4308C004408B
:102B60000C18FE430CC004400C10FE430CB0044093
:102B70001010FE4310B004401810FE4318B004407B
:102B80001C10FE431CB004401410FE4314B004405B
:102B90000418FE4304C004400010FE4300B004408B
:102BA0000008FE4300A004400408FE4304A00440C3
:102BB0000C08FE430CA004400808FE4308A0044093
:102BC0001418FE4314C004401818FE4318C00440F3
:102BD0000410FE4304B004400810FE4308B0044053
:102BE0001400FE43149004404C08FE434CA00440E3
:102BF0000420FE4304D004402410FE4324B00440CB
:102C00002010FE4320B004402810FE4328B00440AA
:102C10002C10FE432CB004400020FE4300D00440A2
:102C20004808FE4348A004401000FE4310900440B2
:102C30000000000000000000E9160000E11600009E
:102C4000DD160000D9160000D5160000D1160000D0
:102C5000CD160000C916000000151915000100006E
:102C60003C87FF1F12000000000200006887FF1F62
:102C70004300000000030000C487FF1F00000000A5
:102C8000010309045087FF1F00000000020309042C
:102C9000AC87FF1F0000000003030904C887FF1F63
:102CA0000000000000000000000000000000000024
:102CB000E087FF1FF8B500BFF8BC08BC9E46704710
:082CC000A92700003504000003
:042CC800F8B500BF9C
:102CCC003C93FF1F382C000000000000E8030000BC
:102CDC0000000000FFFFFFFF0A04000012011001BA
:102CEC0002000040C01683047502010203010000BB
:102CFC0018035400650065006E00730079006400D1
:102D0C00750069006E006F0009024300020100C0EB
:102D1C003209040000010202010005240010010523
:102D2C002401010104240206052406000107058282
:102D3C000310004009040100020A0000000705030B
:102D4C0002400000070584024000000016035500F5
:102D5C0053004200200053006500720069006100BE
:102D6C006C000000040309040C03000000000000C8
:102D7C000000000000000000000000000000000047
:102D8C0000000000CC8AFF1F348BFF1F9C8BFF1FA1
:102D9C000000000000000000000000000000000027
:102DAC000000000000000000000000000000000017
:102DBC000000000000000000000000000000000007
:102DCC0000000000000000000000000000000000F7
:102DDC0000000000000000000000000000000000E7
:102DEC0000000000000000000000000000000000D7
:102DFC0000000000000000000000000000000000C7
:102E0C0000000000000000000000000000000000B6
:102E1C0000000000000000000000000000000000A6
:102E2C000000000000000000010000000000000095
:102E3C000E33CDAB34126DE6ECDE05000B0000005A
:102E4C000000000000000000000000000000000076
:102E5C000000000000000000000000000000000066
:102E6C000000000000000000000000000000000056
:102E7C000000000000000000000000000000000046
:1031AC000000000000000000E087FF1F000000008E
:1031BC00000000000C8CFF1F0C8CFF1F148CFF1FD9
:1031CC00148CFF1F1C8CFF1F1C8CFF1F248CFF1FDB
:1031DC00248CFF1F2C8CFF1F2C8CFF1F348CFF1F8B
:1031EC00348CFF1F3C8CFF1F3C8CFF1F448CFF1F3B
:1031FC00448CFF1F4C8CFF1F4C8CFF1F548CFF1FEB
:10320C00548CFF1F5C8CFF1F5C8CFF1F648CFF1F9A
:10321C00648CFF1F6C8CFF1F6C8CFF1F748CFF1F4A
:10322C00748CFF1F7C8CFF1F7C8CFF1F848CFF1FFA
:10323C00848CFF1F8C8CFF1F8C8CFF1F948CFF1FAA
:10324C00948CFF1F9C8CFF1F9C8CFF1FA48CFF1F5A
:10325C00A48CFF1FAC8CFF1FAC8CFF1FB48CFF1F0A
:10326C00B48CFF1FBC8CFF1FBC8CFF1FC48CFF1FBA
:10327C00C48CFF1FCC8CFF1FCC8CFF1FD48CFF1F6A
:10328C00D48CFF1FDC8CFF1FDC8CFF1FE48CFF1F1A
:10329C00E48CFF1FEC8CFF1FEC8CFF1FF48CFF1FCA
:1032AC00F48CFF1FFC8CFF1FFC8CFF1F048DFF1F79
:1032BC00048DFF1F0C8DFF1F0C8DFF1F148DFF1F26
:1032CC00148DFF1F1C8DFF1F1C8DFF1F248DFF1FD6
:1032DC00248DFF1F2C8DFF1F2C8DFF1F348DFF1F86
:1032EC00348DFF1F3C8DFF1F3C8DFF1F448DFF1F36
:1032FC00448DFF1F4C8DFF1F4C8DFF1F548DFF1FE6
:10330C00548DFF1F5C8DFF1F5C8DFF1F648DFF1F95
:10331C00648DFF1F6C8DFF1F6C8DFF1F748DFF1F45
:10332C00748DFF1F7C8DFF1F7C8DFF1F848DFF1FF5
:10333C00848DFF1F8C8DFF1F8C8DFF1F948DFF1FA5
:10334C00948DFF1F9C8DFF1F9C8DFF1FA48DFF1F55
:10335C00A48DFF1FAC8DFF1FAC8DFF1FB48DFF1F05
:10336C00B48DFF1FBC8DFF1FBC8DFF1FC48DFF1FB5
:10337C00C48DFF1FCC8DFF1FCC8DFF1FD48DFF1F65
:10338C00D48DFF1FDC8DFF1FDC8DFF1FE48DFF1F15
:10339C00E48DFF1FEC8DFF1FEC8DFF1FF48DFF1FC5
:1033AC00F48DFF1FFC8DFF1FFC8DFF1F048EFF1F74
:1033BC00048EFF1F0C8EFF1F0C8EFF1F148EFF1F21
:1033CC00148EFF1F1C8EFF1F1C8EFF1F248EFF1FD1
:1033DC00248EFF1F2C8EFF1F2C8EFF1F348EFF1F81
:1033EC00348EFF1F3C8EFF1F3C8EFF1F448EFF1F31
:1033FC00448EFF1F4C8EFF1F4C8EFF1F548EFF1FE1
:10340C00548EFF1F5C8EFF1F5C8EFF1F648EFF1F90
:10341C00648EFF1F6C8EFF1F6C8EFF1F748EFF1F40
:10342C00748EFF1F7C8EFF1F7C8EFF1F848EFF1FF0
:10343C00848EFF1F8C8EFF1F8C8EFF1F948EFF1FA0
:10344C00948EFF1F9C8EFF1F9C8EFF1FA48EFF1F50
:10345C00A48EFF1FAC8EFF1FAC8EFF1FB48EFF1F00
:10346C00B48EFF1FBC8EFF1FBC8EFF1FC48EFF1FB0
:10347C00C48EFF1FCC8EFF1FCC8EFF1FD48EFF1F60
:10348C00D48EFF1FDC8EFF1FDC8EFF1FE48EFF1F10
:10349C00E48EFF1FEC8EFF1FEC8EFF1FF48EFF1FC0
:1034AC00F48EFF1FFC8EFF1FFC8EFF1F048FFF1F6F
:1034BC00048FFF1F0C8FFF1F0C8FFF1F148FFF1F1C
:1034CC00148FFF1F1C8FFF1F1C8FFF1F248FFF1FCC
:1034DC00248FFF1F2C8FFF1F2C8FFF1F348FFF1F7C
:1034EC00348FFF1F3C8FFF1F3C8FFF1F448FFF1F2C
:1034FC00448FFF1F4C8FFF1F4C8FFF1F548FFF1FDC
:10350C00548FFF1F5C8FFF1F5C8FFF1F648FFF1F8B
:10351C00648FFF1F6C8FFF1F6C8FFF1F748FFF1F3B
:10352C00748FFF1F7C8FFF1F7C8FFF1F848FFF1FEB
:10353C00848FFF1F8C8FFF1F8C8FFF1F948FFF1F9B
:10354C00948FFF1F9C8FFF1F9C8FFF1FA48FFF1F4B
:10355C00A48FFF1FAC8FFF1FAC8FFF1FB48FFF1FFB
:10356C00B48FFF1FBC8FFF1FBC8FFF1FC48FFF1FAB
:10357C00C48FFF1FCC8FFF1FCC8FFF1FD48FFF1F5B
:10358C00D48FFF1FDC8FFF1FDC8FFF1FE48FFF1F0B
:10359C00E48FFF1FEC8FFF1FEC8FFF1FF48FFF1FBB
:1035AC00F48FFF1FFC8FFF1FFC8FFF1F0490FF1F6A
:0C35BC000490FF1F00000200FFFFFFFF53
:00000001FF
